{
  "_format": "hh-sol-artifact-1",
  "contractName": "Collections",
  "sourceName": "contracts/Collections.sol",
  "abi": [
    {
      "inputs": [],
      "stateMutability": "nonpayable",
      "type": "constructor"
    },
    {
      "anonymous": false,
      "inputs": [
        {
          "indexed": true,
          "internalType": "uint256",
          "name": "collectionId",
          "type": "uint256"
        },
        {
          "indexed": true,
          "internalType": "uint256",
          "name": "tokenId",
          "type": "uint256"
        },
        {
          "indexed": false,
          "internalType": "address",
          "name": "creator",
          "type": "address"
        },
        {
          "indexed": false,
          "internalType": "uint256",
          "name": "supply",
          "type": "uint256"
        },
        {
          "indexed": false,
          "internalType": "uint256",
          "name": "price",
          "type": "uint256"
        }
      ],
      "name": "CollectionCreated",
      "type": "event"
    },
    {
      "anonymous": false,
      "inputs": [
        {
          "indexed": true,
          "internalType": "uint256",
          "name": "collectionId",
          "type": "uint256"
        },
        {
          "indexed": true,
          "internalType": "address",
          "name": "buyer",
          "type": "address"
        },
        {
          "indexed": false,
          "internalType": "uint256",
          "name": "sold",
          "type": "uint256"
        }
      ],
      "name": "CollectionPurchased",
      "type": "event"
    },
    {
      "inputs": [
        {
          "internalType": "uint256",
          "name": "",
          "type": "uint256"
        }
      ],
      "name": "amountWithdrawnToCreator",
      "outputs": [
        {
          "internalType": "uint256",
          "name": "",
          "type": "uint256"
        }
      ],
      "stateMutability": "view",
      "type": "function"
    },
    {
      "inputs": [
        {
          "internalType": "uint256",
          "name": "_collectionId",
          "type": "uint256"
        }
      ],
      "name": "buyCollection",
      "outputs": [],
      "stateMutability": "payable",
      "type": "function"
    },
    {
      "inputs": [
        {
          "internalType": "uint256",
          "name": "",
          "type": "uint256"
        }
      ],
      "name": "collections",
      "outputs": [
        {
          "internalType": "uint256",
          "name": "supply",
          "type": "uint256"
        },
        {
          "internalType": "uint256",
          "name": "price",
          "type": "uint256"
        },
        {
          "internalType": "address payable",
          "name": "creator",
          "type": "address"
        },
        {
          "internalType": "uint256",
          "name": "tokenId",
          "type": "uint256"
        },
        {
          "internalType": "uint256",
          "name": "sold",
          "type": "uint256"
        }
      ],
      "stateMutability": "view",
      "type": "function"
    },
    {
      "inputs": [
        {
          "internalType": "uint256",
          "name": "_supply",
          "type": "uint256"
        },
        {
          "internalType": "uint256",
          "name": "_price",
          "type": "uint256"
        },
        {
          "internalType": "address payable",
          "name": "_creator",
          "type": "address"
        },
        {
          "internalType": "uint256",
          "name": "_tokenId",
          "type": "uint256"
        }
      ],
      "name": "createCollection",
      "outputs": [],
      "stateMutability": "nonpayable",
      "type": "function"
    },
    {
      "inputs": [],
      "name": "marketContract",
      "outputs": [
        {
          "internalType": "address",
          "name": "",
          "type": "address"
        }
      ],
      "stateMutability": "view",
      "type": "function"
    },
    {
      "inputs": [],
      "name": "mediaContract",
      "outputs": [
        {
          "internalType": "address",
          "name": "",
          "type": "address"
        }
      ],
      "stateMutability": "view",
      "type": "function"
    },
    {
      "inputs": [
        {
          "internalType": "address",
          "name": "_address",
          "type": "address"
        }
      ],
      "name": "setMarketAddress",
      "outputs": [],
      "stateMutability": "nonpayable",
      "type": "function"
    },
    {
      "inputs": [
        {
          "internalType": "address",
          "name": "_address",
          "type": "address"
        }
      ],
      "name": "setMediaAddress",
      "outputs": [],
      "stateMutability": "nonpayable",
      "type": "function"
    },
    {
      "inputs": [
        {
          "internalType": "uint256",
          "name": "_collectionId",
          "type": "uint256"
        }
      ],
      "name": "withdrawFunds",
      "outputs": [],
      "stateMutability": "nonpayable",
      "type": "function"
    }
  ],
  "bytecode": "0x6080604052600160055534801561001557600080fd5b50600080546001600160a01b03191633179055610e6d806100376000396000f3fe6080604052600436106100965760003560e01c8063a1794bcd11610069578063ae18cb4c1161004e578063ae18cb4c1461016d578063fae92612146101a8578063fdbda0ec146101c857600080fd5b8063a1794bcd1461012d578063a1871f8a1461014d57600080fd5b8063110243001461009b578063155dd5ee146100b05780632f514d4a146100d05780634e21f9c0146100f0575b600080fd5b6100ae6100a9366004610cd1565b610253565b005b3480156100bc57600080fd5b506100ae6100cb366004610cd1565b610706565b3480156100dc57600080fd5b506100ae6100eb366004610b5e565b610791565b3480156100fc57600080fd5b50600154610110906001600160a01b031681565b6040516001600160a01b0390911681526020015b60405180910390f35b34801561013957600080fd5b50600254610110906001600160a01b031681565b34801561015957600080fd5b506100ae610168366004610ce9565b6107d7565b34801561017957600080fd5b5061019a610188366004610cd1565b60046020526000908152604090205481565b604051908152602001610124565b3480156101b457600080fd5b506100ae6101c3366004610b5e565b6109b9565b3480156101d457600080fd5b5061021d6101e3366004610cd1565b600360208190526000918252604090912080546001820154600283015493830154600490930154919390926001600160a01b039091169185565b6040805195865260208601949094526001600160a01b03909216928401929092526060830191909152608082015260a001610124565b6000818152600360205260409020546102b35760405162461bcd60e51b815260206004820152601a60248201527f436f6c6c656374696f6e20646f6573206e6f742065786973742e00000000000060448201526064015b60405180910390fd5b60008181526003602052604090208054600490910154106103165760405162461bcd60e51b815260206004820152601660248201527f436f6c6c656374696f6e20736f6c64206f7574203a280000000000000000000060448201526064016102aa565b600081815260036020526040902060010154341461039c5760405162461bcd60e51b815260206004820152603260248201527f4d7573742073656e6420656e6f75676820746f2070757263686173652066726f60448201527f6d207468697320636f6c6c656374696f6e2e000000000000000000000000000060648201526084016102aa565b60008181526003602081905260408083209091015460015491517fc87b56dd000000000000000000000000000000000000000000000000000000008152600481018290529092916001600160a01b03169063c87b56dd9060240160006040518083038186803b15801561040e57600080fd5b505afa158015610422573d6000803e3d6000fd5b505050506040513d6000823e601f3d908101601f1916820160405261044a9190810190610bb5565b6001546040517f157c3df9000000000000000000000000000000000000000000000000000000008152600481018590529192506000916001600160a01b039091169063157c3df99060240160006040518083038186803b1580156104ad57600080fd5b505afa1580156104c1573d6000803e3d6000fd5b505050506040513d6000823e601f3d908101601f191682016040526104e99190810190610bb5565b6001546040517f01ddc3b5000000000000000000000000000000000000000000000000000000008152600481018690529192506000916001600160a01b03909116906301ddc3b59060240160206040518083038186803b15801561054c57600080fd5b505afa158015610560573d6000803e3d6000fd5b505050506040513d601f19601f820116820180604052508101906105849190610b9d565b6000868152600360209081526040808320600401548151928301899052908201524260608201529192509060800160408051808303601f1901815282825280516020918201206080840183528784529083018690528282018190526060830185905260025491517ff9ce0582000000000000000000000000000000000000000000000000000000008152600481018990529093506000916001600160a01b03169063f9ce05829060240160606040518083038186803b15801561064657600080fd5b505afa15801561065a573d6000803e3d6000fd5b505050506040513d601f19601f8201168201806040525081019061067e9190610c63565b9050336001600160a01b0316887f822051cc2734ed98673f861a3f681c25712d0f5fb3a635db11ee5418063aa066600360008c8152602001908152602001600020600401546040516106d291815260200190565b60405180910390a360008881526003602052604081206004018054916106f783610da6565b91905055505050505050505050565b6000818152600460208181526040808420546003909252832091820154600190920154909161073491610d70565b61073e9190610d8f565b9050806004600084815260200190815260200160002060008282546107639190610d58565b909155505060008281526003602052604090206002015461078d906001600160a01b0316826109ff565b5050565b6000546001600160a01b031633146107a857600080fd5b6001805473ffffffffffffffffffffffffffffffffffffffff19166001600160a01b0392909216919091179055565b6001546040517fe0fd045f00000000000000000000000000000000000000000000000000000000815260048101839052339183916001600160a01b039091169063e0fd045f9060240160206040518083038186803b15801561083857600080fd5b505afa15801561084c573d6000803e3d6000fd5b505050506040513d601f19601f820116820180604052508101906108709190610b81565b6001600160a01b0316826001600160a01b0316146108d05760405162461bcd60e51b815260206004820152601960248201527f596f7520646f206e6f74206f776e207468697320746f6b656e0000000000000060448201526064016102aa565b6040805160a08101825287815260208082018881526001600160a01b0388811684860181815260608087018b81526000608089018181526005805483526003808b52928c90209a518b55975160018b0155935160028a01805473ffffffffffffffffffffffffffffffffffffffff19169190971617909555519387019390935551600490950194909455905484519384529183018a9052928201889052859290917f19477cf8ae505208dfe403b13063f647ff0b859ac40998632719f32028b95da5910160405180910390a3600580549060006109ac83610da6565b9190505550505050505050565b6000546001600160a01b031633146109d057600080fd5b6002805473ffffffffffffffffffffffffffffffffffffffff19166001600160a01b0392909216919091179055565b80471015610a4f5760405162461bcd60e51b815260206004820152601c60248201527f496e73756666696369656e742062616c616e636520746f2073656e640000000060448201526064016102aa565b6000826001600160a01b03168260405160006040518083038185875af1925050503d8060008114610a9c576040519150601f19603f3d011682016040523d82523d6000602084013e610aa1565b606091505b5050905080610b185760405162461bcd60e51b815260206004820152602960248201527f556e61626c6520746f2073656e643a2063726561746f72206d6179206861766560448201527f207265766572746564000000000000000000000000000000000000000000000060648201526084016102aa565b505050565b600060208284031215610b2e578081fd5b6040516020810181811067ffffffffffffffff82111715610b5157610b51610df0565b6040529151825250919050565b600060208284031215610b6f578081fd5b8135610b7a81610e1f565b9392505050565b600060208284031215610b92578081fd5b8151610b7a81610e1f565b600060208284031215610bae578081fd5b5051919050565b60006020808385031215610bc7578182fd5b825167ffffffffffffffff80821115610bde578384fd5b818501915085601f830112610bf1578384fd5b815181811115610c0357610c03610df0565b610c1584601f19601f84011601610d27565b91508082528684828501011115610c2a578485fd5b845b81811015610c47578381018501518382018601528401610c2c565b81811115610c5757858583850101525b50909695505050505050565b600060608284031215610c74578081fd5b6040516060810181811067ffffffffffffffff82111715610c9757610c97610df0565b604052610ca48484610b1d565b8152610cb38460208501610b1d565b6020820152610cc58460408501610b1d565b60408201529392505050565b600060208284031215610ce2578081fd5b5035919050565b60008060008060808587031215610cfe578283fd5b84359350602085013592506040850135610d1781610e1f565b9396929550929360600135925050565b604051601f8201601f1916810167ffffffffffffffff81118282101715610d5057610d50610df0565b604052919050565b60008219821115610d6b57610d6b610dc1565b500190565b6000816000190483118215151615610d8a57610d8a610dc1565b500290565b600082821015610da157610da1610dc1565b500390565b6000600019821415610dba57610dba610dc1565b5060010190565b7f4e487b7100000000000000000000000000000000000000000000000000000000600052601160045260246000fd5b7f4e487b7100000000000000000000000000000000000000000000000000000000600052604160045260246000fd5b6001600160a01b0381168114610e3457600080fd5b5056fea26469706673582212202d2a3646bc20ead4efef6d352e8d7ee7a60e740edaa975f1b6540aff165d9cfc64736f6c63430008040033",
  "linkReferences": {},
  "deployedLinkReferences": {}
}