{
  "_format": "hh-sol-artifact-1",
  "contractName": "Collections",
  "sourceName": "contracts/Collections.sol",
  "abi": [
    {
      "inputs": [],
      "stateMutability": "nonpayable",
      "type": "constructor"
    },
    {
      "anonymous": false,
      "inputs": [
        {
          "indexed": true,
          "internalType": "uint256",
          "name": "collectionId",
          "type": "uint256"
        },
        {
          "indexed": true,
          "internalType": "uint256",
          "name": "tokenId",
          "type": "uint256"
        },
        {
          "indexed": false,
          "internalType": "address",
          "name": "creator",
          "type": "address"
        },
        {
          "indexed": false,
          "internalType": "uint256",
          "name": "supply",
          "type": "uint256"
        },
        {
          "indexed": false,
          "internalType": "uint256",
          "name": "price",
          "type": "uint256"
        }
      ],
      "name": "CollectionCreated",
      "type": "event"
    },
    {
      "anonymous": false,
      "inputs": [
        {
          "indexed": true,
          "internalType": "uint256",
          "name": "collectionId",
          "type": "uint256"
        },
        {
          "indexed": true,
          "internalType": "address",
          "name": "buyer",
          "type": "address"
        },
        {
          "indexed": true,
          "internalType": "uint256",
          "name": "tokenId",
          "type": "uint256"
        }
      ],
      "name": "CollectionPurchased",
      "type": "event"
    },
    {
      "inputs": [
        {
          "internalType": "uint256",
          "name": "",
          "type": "uint256"
        }
      ],
      "name": "amountWithdrawnToCreator",
      "outputs": [
        {
          "internalType": "uint256",
          "name": "",
          "type": "uint256"
        }
      ],
      "stateMutability": "view",
      "type": "function"
    },
    {
      "inputs": [
        {
          "internalType": "uint256",
          "name": "_collectionId",
          "type": "uint256"
        }
      ],
      "name": "buyCollection",
      "outputs": [],
      "stateMutability": "payable",
      "type": "function"
    },
    {
      "inputs": [
        {
          "internalType": "address",
          "name": "",
          "type": "address"
        }
      ],
      "name": "buyerToToken",
      "outputs": [
        {
          "internalType": "uint256",
          "name": "",
          "type": "uint256"
        }
      ],
      "stateMutability": "view",
      "type": "function"
    },
    {
      "inputs": [
        {
          "internalType": "uint256",
          "name": "_tokenId",
          "type": "uint256"
        }
      ],
      "name": "collectionBidShares",
      "outputs": [
        {
          "components": [
            {
              "components": [
                {
                  "internalType": "uint256",
                  "name": "value",
                  "type": "uint256"
                }
              ],
              "internalType": "struct Decimal.D256",
              "name": "prevOwner",
              "type": "tuple"
            },
            {
              "components": [
                {
                  "internalType": "uint256",
                  "name": "value",
                  "type": "uint256"
                }
              ],
              "internalType": "struct Decimal.D256",
              "name": "creator",
              "type": "tuple"
            },
            {
              "components": [
                {
                  "internalType": "uint256",
                  "name": "value",
                  "type": "uint256"
                }
              ],
              "internalType": "struct Decimal.D256",
              "name": "owner",
              "type": "tuple"
            }
          ],
          "internalType": "struct Market.BidShares",
          "name": "",
          "type": "tuple"
        }
      ],
      "stateMutability": "view",
      "type": "function"
    },
    {
      "inputs": [
        {
          "internalType": "uint256",
          "name": "_tokenId",
          "type": "uint256"
        }
      ],
      "name": "collectionMediaData",
      "outputs": [
        {
          "components": [
            {
              "internalType": "string",
              "name": "tokenURI",
              "type": "string"
            },
            {
              "internalType": "string",
              "name": "metadataURI",
              "type": "string"
            },
            {
              "internalType": "bytes32",
              "name": "contentHash",
              "type": "bytes32"
            },
            {
              "internalType": "bytes32",
              "name": "metadataHash",
              "type": "bytes32"
            }
          ],
          "internalType": "struct Media.MediaData",
          "name": "",
          "type": "tuple"
        }
      ],
      "stateMutability": "view",
      "type": "function"
    },
    {
      "inputs": [
        {
          "internalType": "uint256",
          "name": "",
          "type": "uint256"
        }
      ],
      "name": "collections",
      "outputs": [
        {
          "internalType": "uint256",
          "name": "supply",
          "type": "uint256"
        },
        {
          "internalType": "uint256",
          "name": "price",
          "type": "uint256"
        },
        {
          "internalType": "address payable",
          "name": "creator",
          "type": "address"
        },
        {
          "internalType": "uint256",
          "name": "tokenId",
          "type": "uint256"
        },
        {
          "internalType": "uint256",
          "name": "sold",
          "type": "uint256"
        }
      ],
      "stateMutability": "view",
      "type": "function"
    },
    {
      "inputs": [
        {
          "internalType": "uint256",
          "name": "_supply",
          "type": "uint256"
        },
        {
          "internalType": "uint256",
          "name": "_price",
          "type": "uint256"
        },
        {
          "internalType": "address payable",
          "name": "_creator",
          "type": "address"
        },
        {
          "internalType": "uint256",
          "name": "_tokenId",
          "type": "uint256"
        }
      ],
      "name": "createCollection",
      "outputs": [],
      "stateMutability": "nonpayable",
      "type": "function"
    },
    {
      "inputs": [],
      "name": "marketContract",
      "outputs": [
        {
          "internalType": "address",
          "name": "",
          "type": "address"
        }
      ],
      "stateMutability": "view",
      "type": "function"
    },
    {
      "inputs": [],
      "name": "mediaContract",
      "outputs": [
        {
          "internalType": "address",
          "name": "",
          "type": "address"
        }
      ],
      "stateMutability": "view",
      "type": "function"
    },
    {
      "inputs": [
        {
          "internalType": "address",
          "name": "_address",
          "type": "address"
        }
      ],
      "name": "setMarketAddress",
      "outputs": [],
      "stateMutability": "nonpayable",
      "type": "function"
    },
    {
      "inputs": [
        {
          "internalType": "address",
          "name": "_address",
          "type": "address"
        }
      ],
      "name": "setMediaAddress",
      "outputs": [],
      "stateMutability": "nonpayable",
      "type": "function"
    },
    {
      "inputs": [
        {
          "internalType": "uint256",
          "name": "_collectionId",
          "type": "uint256"
        }
      ],
      "name": "withdrawFunds",
      "outputs": [],
      "stateMutability": "nonpayable",
      "type": "function"
    }
  ],
  "bytecode": "0x6080604052600180546001600160a01b0319908116739fe46736679d2d9a65f0992f2272de9f3c7fa6e01782556002805490911673e7f1725e7734ce288f8367e1bb143e90bb3f0512179055600881905560095534801561005f57600080fd5b50600080546001600160a01b0319163317905561132b806100816000396000f3fe6080604052600436106100c75760003560e01c8063a1794bcd11610074578063ca25dbc41161004e578063ca25dbc414610233578063fae9261214610278578063fdbda0ec1461029857600080fd5b8063a1794bcd146101c6578063a1871f8a146101e6578063ae18cb4c1461020657600080fd5b80634e21f9c0116100a55780634e21f9c0146101215780638d8101781461015e5780639d937ffb1461018b57600080fd5b806311024300146100cc578063155dd5ee146100e15780632f514d4a14610101575b600080fd5b6100df6100da366004611107565b610323565b005b3480156100ed57600080fd5b506100df6100fc366004611107565b610509565b34801561010d57600080fd5b506100df61011c366004610f99565b610594565b34801561012d57600080fd5b50600154610141906001600160a01b031681565b6040516001600160a01b0390911681526020015b60405180910390f35b34801561016a57600080fd5b5061017e610179366004611107565b6105da565b6040516101559190611189565b34801561019757600080fd5b506101b86101a6366004610f99565b60056020526000908152604090205481565b604051908152602001610155565b3480156101d257600080fd5b50600254610141906001600160a01b031681565b3480156101f257600080fd5b506100df61020136600461111f565b610774565b34801561021257600080fd5b506101b8610221366004611107565b60046020526000908152604090205481565b34801561023f57600080fd5b5061025361024e366004611107565b610951565b6040805182515181526020808401515190820152918101515190820152606001610155565b34801561028457600080fd5b506100df610293366004610f99565b6109fa565b3480156102a457600080fd5b506102ed6102b3366004611107565b600360208190526000918252604090912080546001820154600283015493830154600490930154919390926001600160a01b039091169185565b6040805195865260208601949094526001600160a01b03909216928401929092526060830191909152608082015260a001610155565b6000818152600360205260409020546103835760405162461bcd60e51b815260206004820152601a60248201527f436f6c6c656374696f6e20646f6573206e6f742065786973742e00000000000060448201526064015b60405180910390fd5b60008181526003602052604090208054600490910154106103e65760405162461bcd60e51b815260206004820152601660248201527f436f6c6c656374696f6e20736f6c64206f7574203a2800000000000000000000604482015260640161037a565b600081815260036020526040902060010154341461046c5760405162461bcd60e51b815260206004820152603260248201527f4d7573742073656e6420656e6f75676820746f2070757263686173652066726f60448201527f6d207468697320636f6c6c656374696f6e2e0000000000000000000000000000606482015260840161037a565b600081815260036020819052604090912001546104898183610a40565b61049281610cd9565b600954336000818152600560205260408082208490555185917f822051cc2734ed98673f861a3f681c25712d0f5fb3a635db11ee5418063aa06691a460008281526003602052604081206004018054916104eb83611296565b90915550506009805490600061050083611296565b91905055505050565b60008181526004602081815260408084205460039092528320918201546001909201549091610537916111fb565b610541919061121a565b90508060046000848152602001908152602001600020600082825461056691906111e3565b9091555050600082815260036020526040902060020154610590906001600160a01b031682610da1565b5050565b6000546001600160a01b031633146105ab57600080fd5b6001805473ffffffffffffffffffffffffffffffffffffffff19166001600160a01b0392909216919091179055565b604080516080810182526060808252602082018190526000928201839052810191909152336000908152600560205260409020548290811461061b57600080fd5b6000838152600660205260409081902081516080810190925280548290829061064390611261565b80601f016020809104026020016040519081016040528092919081815260200182805461066f90611261565b80156106bc5780601f10610691576101008083540402835291602001916106bc565b820191906000526020600020905b81548152906001019060200180831161069f57829003601f168201915b505050505081526020016001820180546106d590611261565b80601f016020809104026020016040519081016040528092919081815260200182805461070190611261565b801561074e5780601f106107235761010080835404028352916020019161074e565b820191906000526020600020905b81548152906001019060200180831161073157829003601f168201915b505050505081526020016002820154815260200160038201548152505091505b50919050565b6001546040517fe0fd045f0000000000000000000000000000000000000000000000000000000081526004810183905282916001600160a01b03169063e0fd045f9060240160206040518083038186803b1580156107d157600080fd5b505afa1580156107e5573d6000803e3d6000fd5b505050506040513d601f19601f820116820180604052508101906108099190610fbc565b6001600160a01b0316336001600160a01b0316146108695760405162461bcd60e51b815260206004820152601960248201527f596f7520646f206e6f74206f776e207468697320746f6b656e00000000000000604482015260640161037a565b6040805160a08101825286815260208082018781526001600160a01b0387811684860181815260608087018a81526000608089018181526008805483526003808b52928c90209a518b55975160018b0155935160028a01805473ffffffffffffffffffffffffffffffffffffffff1916919097161790955551938701939093555160049095019490945590548451938452918301899052928201879052849290917f19477cf8ae505208dfe403b13063f647ff0b859ac40998632719f32028b95da5910160405180910390a36008805490600061094583611296565b91905055505050505050565b61098e6040805160808101825260006060820181815282528251602080820185528282528084019190915283519081018452908152909182015290565b33600090815260056020526040902054829081146109ab57600080fd5b5050600090815260076020908152604091829020825160808101845281546060820190815281528351808401855260018301548152818401528351928301845260029091015482529182015290565b6000546001600160a01b03163314610a1157600080fd5b6002805473ffffffffffffffffffffffffffffffffffffffff19166001600160a01b0392909216919091179055565b6001546040517fc87b56dd000000000000000000000000000000000000000000000000000000008152600481018490526000916001600160a01b03169063c87b56dd9060240160006040518083038186803b158015610a9e57600080fd5b505afa158015610ab2573d6000803e3d6000fd5b505050506040513d6000823e601f3d908101601f19168201604052610ada9190810190610ff0565b6001546040517f157c3df9000000000000000000000000000000000000000000000000000000008152600481018690529192506000916001600160a01b039091169063157c3df99060240160006040518083038186803b158015610b3d57600080fd5b505afa158015610b51573d6000803e3d6000fd5b505050506040513d6000823e601f3d908101601f19168201604052610b799190810190610ff0565b6001546040517f01ddc3b5000000000000000000000000000000000000000000000000000000008152600481018790529192506000916001600160a01b03909116906301ddc3b59060240160206040518083038186803b158015610bdc57600080fd5b505afa158015610bf0573d6000803e3d6000fd5b505050506040513d601f19601f82011682018060405250810190610c149190610fd8565b60008581526003602090815260408083206004015481519283018a9052908201524260608201529192509060800160408051601f19818403018152828252805160209182012060808401835287845283820187905283830181905260608401869052600954600090815260068352929092208351805193955084939192610ca092849290910190610ebf565b506020828101518051610cb99260018501920190610ebf565b506040820151600282015560609091015160039091015550505050505050565b6002546040517ff9ce0582000000000000000000000000000000000000000000000000000000008152600481018390526000916001600160a01b03169063f9ce05829060240160606040518083038186803b158015610d3757600080fd5b505afa158015610d4b573d6000803e3d6000fd5b505050506040513d601f19601f82011682018060405250810190610d6f9190611099565b600954600090815260076020908152604091829020835151815590830151516001820155910151516002909101555050565b80471015610df15760405162461bcd60e51b815260206004820152601c60248201527f496e73756666696369656e742062616c616e636520746f2073656e6400000000604482015260640161037a565b6000826001600160a01b03168260405160006040518083038185875af1925050503d8060008114610e3e576040519150601f19603f3d011682016040523d82523d6000602084013e610e43565b606091505b5050905080610eba5760405162461bcd60e51b815260206004820152602960248201527f556e61626c6520746f2073656e643a2063726561746f72206d6179206861766560448201527f2072657665727465640000000000000000000000000000000000000000000000606482015260840161037a565b505050565b828054610ecb90611261565b90600052602060002090601f016020900481019282610eed5760008555610f33565b82601f10610f0657805160ff1916838001178555610f33565b82800160010185558215610f33579182015b82811115610f33578251825591602001919060010190610f18565b50610f3f929150610f43565b5090565b5b80821115610f3f5760008155600101610f44565b600060208284031215610f69578081fd5b6040516020810181811067ffffffffffffffff82111715610f8c57610f8c6112c7565b6040529151825250919050565b600060208284031215610faa578081fd5b8135610fb5816112dd565b9392505050565b600060208284031215610fcd578081fd5b8151610fb5816112dd565b600060208284031215610fe9578081fd5b5051919050565b600060208284031215611001578081fd5b815167ffffffffffffffff80821115611018578283fd5b818401915084601f83011261102b578283fd5b81518181111561103d5761103d6112c7565b604051601f8201601f19908116603f01168101908382118183101715611065576110656112c7565b8160405282815287602084870101111561107d578586fd5b61108e836020830160208801611231565b979650505050505050565b6000606082840312156110aa578081fd5b6040516060810181811067ffffffffffffffff821117156110cd576110cd6112c7565b6040526110da8484610f58565b81526110e98460208501610f58565b60208201526110fb8460408501610f58565b60408201529392505050565b600060208284031215611118578081fd5b5035919050565b60008060008060808587031215611134578283fd5b8435935060208501359250604085013561114d816112dd565b9396929550929360600135925050565b60008151808452611175816020860160208601611231565b601f01601f19169290920160200192915050565b6020815260008251608060208401526111a560a084018261115d565b90506020840151601f198483030160408501526111c2828261115d565b91505060408401516060840152606084015160808401528091505092915050565b600082198211156111f6576111f66112b1565b500190565b6000816000190483118215151615611215576112156112b1565b500290565b60008282101561122c5761122c6112b1565b500390565b60005b8381101561124c578181015183820152602001611234565b8381111561125b576000848401525b50505050565b600181811c9082168061127557607f821691505b6020821081141561076e57634e487b7160e01b600052602260045260246000fd5b60006000198214156112aa576112aa6112b1565b5060010190565b634e487b7160e01b600052601160045260246000fd5b634e487b7160e01b600052604160045260246000fd5b6001600160a01b03811681146112f257600080fd5b5056fea2646970667358221220caa5206e17d7a01c555a9033a868e59fbad5e586d9559af2dbfb18941d3c7da764736f6c63430008040033",
  "linkReferences": {},
  "deployedLinkReferences": {}
}