{
  "_format": "hh-sol-artifact-1",
  "contractName": "Collections",
  "sourceName": "contracts/Collections.sol",
  "abi": [
    {
      "inputs": [],
      "stateMutability": "nonpayable",
      "type": "constructor"
    },
    {
      "anonymous": false,
      "inputs": [
        {
          "indexed": true,
          "internalType": "uint256",
          "name": "collectionId",
          "type": "uint256"
        },
        {
          "indexed": true,
          "internalType": "uint256",
          "name": "zMediaId",
          "type": "uint256"
        },
        {
          "indexed": true,
          "internalType": "address",
          "name": "creator",
          "type": "address"
        },
        {
          "indexed": false,
          "internalType": "uint256",
          "name": "supply",
          "type": "uint256"
        },
        {
          "indexed": false,
          "internalType": "uint256",
          "name": "price",
          "type": "uint256"
        }
      ],
      "name": "CollectionCreated",
      "type": "event"
    },
    {
      "anonymous": false,
      "inputs": [
        {
          "indexed": true,
          "internalType": "uint256",
          "name": "collectionId",
          "type": "uint256"
        },
        {
          "indexed": true,
          "internalType": "address",
          "name": "buyer",
          "type": "address"
        },
        {
          "indexed": true,
          "internalType": "uint256",
          "name": "tokenId",
          "type": "uint256"
        }
      ],
      "name": "CollectionPurchased",
      "type": "event"
    },
    {
      "inputs": [
        {
          "internalType": "uint256",
          "name": "",
          "type": "uint256"
        }
      ],
      "name": "amountWithdrawnToCreator",
      "outputs": [
        {
          "internalType": "uint256",
          "name": "",
          "type": "uint256"
        }
      ],
      "stateMutability": "view",
      "type": "function"
    },
    {
      "inputs": [
        {
          "internalType": "uint256",
          "name": "collectionId",
          "type": "uint256"
        }
      ],
      "name": "buyCollection",
      "outputs": [],
      "stateMutability": "payable",
      "type": "function"
    },
    {
      "inputs": [
        {
          "internalType": "uint256",
          "name": "tokenId",
          "type": "uint256"
        }
      ],
      "name": "collectionBidShares",
      "outputs": [
        {
          "components": [
            {
              "components": [
                {
                  "internalType": "uint256",
                  "name": "value",
                  "type": "uint256"
                }
              ],
              "internalType": "struct Decimal.D256",
              "name": "prevOwner",
              "type": "tuple"
            },
            {
              "components": [
                {
                  "internalType": "uint256",
                  "name": "value",
                  "type": "uint256"
                }
              ],
              "internalType": "struct Decimal.D256",
              "name": "creator",
              "type": "tuple"
            },
            {
              "components": [
                {
                  "internalType": "uint256",
                  "name": "value",
                  "type": "uint256"
                }
              ],
              "internalType": "struct Decimal.D256",
              "name": "owner",
              "type": "tuple"
            }
          ],
          "internalType": "struct Market.BidShares",
          "name": "",
          "type": "tuple"
        }
      ],
      "stateMutability": "view",
      "type": "function"
    },
    {
      "inputs": [
        {
          "internalType": "uint256",
          "name": "tokenId",
          "type": "uint256"
        }
      ],
      "name": "collectionMediaData",
      "outputs": [
        {
          "components": [
            {
              "internalType": "string",
              "name": "tokenURI",
              "type": "string"
            },
            {
              "internalType": "string",
              "name": "metadataURI",
              "type": "string"
            },
            {
              "internalType": "bytes32",
              "name": "contentHash",
              "type": "bytes32"
            },
            {
              "internalType": "bytes32",
              "name": "metadataHash",
              "type": "bytes32"
            }
          ],
          "internalType": "struct Media.MediaData",
          "name": "",
          "type": "tuple"
        }
      ],
      "stateMutability": "view",
      "type": "function"
    },
    {
      "inputs": [
        {
          "internalType": "uint256",
          "name": "",
          "type": "uint256"
        }
      ],
      "name": "collections",
      "outputs": [
        {
          "internalType": "address",
          "name": "creator",
          "type": "address"
        },
        {
          "internalType": "address payable",
          "name": "depositAddress",
          "type": "address"
        },
        {
          "internalType": "uint256",
          "name": "supply",
          "type": "uint256"
        },
        {
          "internalType": "uint256",
          "name": "price",
          "type": "uint256"
        },
        {
          "internalType": "uint256",
          "name": "zMediaId",
          "type": "uint256"
        },
        {
          "internalType": "uint256",
          "name": "sold",
          "type": "uint256"
        }
      ],
      "stateMutability": "view",
      "type": "function"
    },
    {
      "inputs": [
        {
          "internalType": "uint256",
          "name": "supply",
          "type": "uint256"
        },
        {
          "internalType": "uint256",
          "name": "price",
          "type": "uint256"
        },
        {
          "internalType": "address payable",
          "name": "depositAddress",
          "type": "address"
        },
        {
          "internalType": "uint256",
          "name": "zMediaId",
          "type": "uint256"
        }
      ],
      "name": "createCollection",
      "outputs": [],
      "stateMutability": "nonpayable",
      "type": "function"
    },
    {
      "inputs": [],
      "name": "marketContract",
      "outputs": [
        {
          "internalType": "address",
          "name": "",
          "type": "address"
        }
      ],
      "stateMutability": "view",
      "type": "function"
    },
    {
      "inputs": [],
      "name": "mediaContract",
      "outputs": [
        {
          "internalType": "address",
          "name": "",
          "type": "address"
        }
      ],
      "stateMutability": "view",
      "type": "function"
    },
    {
      "inputs": [
        {
          "internalType": "address",
          "name": "marketAddress",
          "type": "address"
        }
      ],
      "name": "setMarketAddress",
      "outputs": [],
      "stateMutability": "nonpayable",
      "type": "function"
    },
    {
      "inputs": [
        {
          "internalType": "address",
          "name": "mediaAddress",
          "type": "address"
        }
      ],
      "name": "setMediaAddress",
      "outputs": [],
      "stateMutability": "nonpayable",
      "type": "function"
    },
    {
      "inputs": [
        {
          "internalType": "uint256",
          "name": "",
          "type": "uint256"
        }
      ],
      "name": "tokenToBuyer",
      "outputs": [
        {
          "internalType": "address",
          "name": "",
          "type": "address"
        }
      ],
      "stateMutability": "view",
      "type": "function"
    },
    {
      "inputs": [
        {
          "internalType": "uint256",
          "name": "collectionId",
          "type": "uint256"
        }
      ],
      "name": "withdrawFunds",
      "outputs": [],
      "stateMutability": "nonpayable",
      "type": "function"
    }
  ],
  "bytecode": "0x60806040526001600855600160095534801561001a57600080fd5b50600080546001600160a01b031916331790556115888061003c6000396000f3fe6080604052600436106100c75760003560e01c8063a1871f8a11610074578063d466459d1161004e578063d466459d1461024b578063fae9261214610281578063fdbda0ec146102a157600080fd5b8063a1871f8a146101ab578063ae18cb4c146101cb578063ca25dbc41461020657600080fd5b80634e21f9c0116100a55780634e21f9c0146101215780638d8101781461015e578063a1794bcd1461018b57600080fd5b806311024300146100cc578063155dd5ee146100e15780632f514d4a14610101575b600080fd5b6100df6100da366004611364565b610336565b005b3480156100ed57600080fd5b506100df6100fc366004611364565b61053b565b34801561010d57600080fd5b506100df61011c3660046111f6565b610655565b34801561012d57600080fd5b50600154610141906001600160a01b031681565b6040516001600160a01b0390911681526020015b60405180910390f35b34801561016a57600080fd5b5061017e610179366004611364565b610704565b60405161015591906113e6565b34801561019757600080fd5b50600254610141906001600160a01b031681565b3480156101b757600080fd5b506100df6101c636600461137c565b6108e9565b3480156101d757600080fd5b506101f86101e6366004611364565b60046020526000908152604090205481565b604051908152602001610155565b34801561021257600080fd5b50610226610221366004611364565b610adc565b6040805182515181526020808401515190820152918101515190820152606001610155565b34801561025757600080fd5b50610141610266366004611364565b6005602052600090815260409020546001600160a01b031681565b34801561028d57600080fd5b506100df61029c3660046111f6565b610bd0565b3480156102ad57600080fd5b506102fe6102bc366004611364565b60036020819052600091825260409091208054600182015460028301549383015460048401546005909401546001600160a01b03938416959390921693909186565b604080516001600160a01b039788168152969095166020870152938501929092526060840152608083015260a082015260c001610155565b600081815260036020526040902060020154819061039b5760405162461bcd60e51b815260206004820152601a60248201527f436f6c6c656374696f6e20646f6573206e6f742065786973742e00000000000060448201526064015b60405180910390fd5b60008181526003602052604090206002810154600590910154106104015760405162461bcd60e51b815260206004820152601660248201527f436f6c6c656374696f6e20736f6c64206f7574203a28000000000000000000006044820152606401610392565b6000818152600360208190526040909120015434146104885760405162461bcd60e51b815260206004820152603260248201527f4d7573742073656e6420656e6f75676820746f2070757263686173652066726f60448201527f6d207468697320636f6c6c656374696f6e2e00000000000000000000000000006064820152608401610392565b61049482600954610c7f565b6104a082600954610f28565b60098054600090815260056020526040808220805473ffffffffffffffffffffffffffffffffffffffff1916339081179091559254905190929185917f822051cc2734ed98673f861a3f681c25712d0f5fb3a635db11ee5418063aa0669190a4600082815260036020526040812060050180549161051d836114f3565b909155505060098054906000610532836114f3565b91905055505050565b60008181526003602052604090205481906001600160a01b031633146105c95760405162461bcd60e51b815260206004820152602360248201527f596f7520646964206e6f7420637265617465207468697320636f6c6c6563746960448201527f6f6e2e00000000000000000000000000000000000000000000000000000000006064820152608401610392565b600082815260046020908152604080832054600392839052908320600581015492015490916105f791611458565b6106019190611477565b9050806004600085815260200190815260200160002060008282546106269190611440565b9091555050600083815260036020526040902060010154610650906001600160a01b031682611003565b505050565b6000546001600160a01b031633146106d55760405162461bcd60e51b815260206004820152602160248201527f596f7520646964206e6f74206465706c6f79207468697320636f6e747261637460448201527f2e000000000000000000000000000000000000000000000000000000000000006064820152608401610392565b6001805473ffffffffffffffffffffffffffffffffffffffff19166001600160a01b0392909216919091179055565b60408051608081018252606080825260208201819052600092820183905281019190915260008281526005602052604090205482906001600160a01b031633146107905760405162461bcd60e51b815260206004820181905260248201527f596f7520646964206e6f74207075726368617365207468697320746f6b656e2e6044820152606401610392565b600083815260066020526040908190208151608081019092528054829082906107b8906114be565b80601f01602080910402602001604051908101604052809291908181526020018280546107e4906114be565b80156108315780601f1061080657610100808354040283529160200191610831565b820191906000526020600020905b81548152906001019060200180831161081457829003601f168201915b5050505050815260200160018201805461084a906114be565b80601f0160208091040260200160405190810160405280929190818152602001828054610876906114be565b80156108c35780601f10610898576101008083540402835291602001916108c3565b820191906000526020600020905b8154815290600101906020018083116108a657829003601f168201915b505050505081526020016002820154815260200160038201548152505091505b50919050565b6001546040517fe0fd045f0000000000000000000000000000000000000000000000000000000081526004810183905282916001600160a01b03169063e0fd045f9060240160206040518083038186803b15801561094657600080fd5b505afa15801561095a573d6000803e3d6000fd5b505050506040513d601f19601f8201168201806040525081019061097e9190611219565b6001600160a01b0316336001600160a01b0316146109de5760405162461bcd60e51b815260206004820152601a60248201527f596f7520646f206e6f74206f776e207468697320746f6b656e2e0000000000006044820152606401610392565b6040805160c081018252338082526001600160a01b0386811660208085019182528486018b8152606086018b8152608087018a8152600060a089018181526008805483526003808852928c90209a518b54908a1673ffffffffffffffffffffffffffffffffffffffff19918216178c55975160018c01805491909a1698169790971790975592516002890155905191870191909155516004860155915160059094019390935591548351898152928301889052909285927f19477cf8ae505208dfe403b13063f647ff0b859ac40998632719f32028b95da5910160405180910390a460088054906000610ad0836114f3565b91905055505050505050565b610b196040805160808101825260006060820181815282528251602080820185528282528084019190915283519081018452908152909182015290565b60008281526005602052604090205482906001600160a01b03163314610b815760405162461bcd60e51b815260206004820181905260248201527f596f7520646964206e6f74207075726368617365207468697320746f6b656e2e6044820152606401610392565b5050600090815260076020908152604091829020825160808101845281546060820190815281528351808401855260018301548152818401528351928301845260029091015482529182015290565b6000546001600160a01b03163314610c505760405162461bcd60e51b815260206004820152602160248201527f596f7520646964206e6f74206465706c6f79207468697320636f6e747261637460448201527f2e000000000000000000000000000000000000000000000000000000000000006064820152608401610392565b6002805473ffffffffffffffffffffffffffffffffffffffff19166001600160a01b0392909216919091179055565b60008281526003602052604080822060049081015460015492517fc87b56dd00000000000000000000000000000000000000000000000000000000815291820181905292916001600160a01b03169063c87b56dd9060240160006040518083038186803b158015610cef57600080fd5b505afa158015610d03573d6000803e3d6000fd5b505050506040513d6000823e601f3d908101601f19168201604052610d2b919081019061124d565b6001546040517f157c3df9000000000000000000000000000000000000000000000000000000008152600481018590529192506000916001600160a01b039091169063157c3df99060240160006040518083038186803b158015610d8e57600080fd5b505afa158015610da2573d6000803e3d6000fd5b505050506040513d6000823e601f3d908101601f19168201604052610dca919081019061124d565b6001546040517f01ddc3b5000000000000000000000000000000000000000000000000000000008152600481018690529192506000916001600160a01b03909116906301ddc3b59060240160206040518083038186803b158015610e2d57600080fd5b505afa158015610e41573d6000803e3d6000fd5b505050506040513d601f19601f82011682018060405250810190610e659190611235565b6000878152600360209081526040808320600501548151928301899052908201524260608201529192509060800160408051601f1981840301815282825280516020918201206080840183528784528382018790528383018190526060840186905260008a815260068352929092208351805193955084939192610eee9284929091019061111c565b506020828101518051610f07926001850192019061111c565b50604082015160028201556060909101516003909101555050505050505050565b60025460008381526003602052604080822060049081015491517ff9ce05820000000000000000000000000000000000000000000000000000000081529081019190915290916001600160a01b03169063f9ce05829060240160606040518083038186803b158015610f9957600080fd5b505afa158015610fad573d6000803e3d6000fd5b505050506040513d601f19601f82011682018060405250810190610fd191906112f6565b600092835260076020908152604093849020825151815590820151516001820155920151516002909201919091555050565b804710156110535760405162461bcd60e51b815260206004820152601c60248201527f496e73756666696369656e742062616c616e636520746f2073656e64000000006044820152606401610392565b6000826001600160a01b03168260405160006040518083038185875af1925050503d80600081146110a0576040519150601f19603f3d011682016040523d82523d6000602084013e6110a5565b606091505b50509050806106505760405162461bcd60e51b815260206004820152602960248201527f556e61626c6520746f2073656e643a2063726561746f72206d6179206861766560448201527f20726576657274656400000000000000000000000000000000000000000000006064820152608401610392565b828054611128906114be565b90600052602060002090601f01602090048101928261114a5760008555611190565b82601f1061116357805160ff1916838001178555611190565b82800160010185558215611190579182015b82811115611190578251825591602001919060010190611175565b5061119c9291506111a0565b5090565b5b8082111561119c57600081556001016111a1565b6000602082840312156111c6578081fd5b6040516020810181811067ffffffffffffffff821117156111e9576111e9611524565b6040529151825250919050565b600060208284031215611207578081fd5b81356112128161153a565b9392505050565b60006020828403121561122a578081fd5b81516112128161153a565b600060208284031215611246578081fd5b5051919050565b60006020828403121561125e578081fd5b815167ffffffffffffffff80821115611275578283fd5b818401915084601f830112611288578283fd5b81518181111561129a5761129a611524565b604051601f8201601f19908116603f011681019083821181831017156112c2576112c2611524565b816040528281528760208487010111156112da578586fd5b6112eb83602083016020880161148e565b979650505050505050565b600060608284031215611307578081fd5b6040516060810181811067ffffffffffffffff8211171561132a5761132a611524565b60405261133784846111b5565b815261134684602085016111b5565b602082015261135884604085016111b5565b60408201529392505050565b600060208284031215611375578081fd5b5035919050565b60008060008060808587031215611391578283fd5b843593506020850135925060408501356113aa8161153a565b9396929550929360600135925050565b600081518084526113d281602086016020860161148e565b601f01601f19169290920160200192915050565b60208152600082516080602084015261140260a08401826113ba565b90506020840151601f1984830301604085015261141f82826113ba565b91505060408401516060840152606084015160808401528091505092915050565b600082198211156114535761145361150e565b500190565b60008160001904831182151516156114725761147261150e565b500290565b6000828210156114895761148961150e565b500390565b60005b838110156114a9578181015183820152602001611491565b838111156114b8576000848401525b50505050565b600181811c908216806114d257607f821691505b602082108114156108e357634e487b7160e01b600052602260045260246000fd5b60006000198214156115075761150761150e565b5060010190565b634e487b7160e01b600052601160045260246000fd5b634e487b7160e01b600052604160045260246000fd5b6001600160a01b038116811461154f57600080fd5b5056fea2646970667358221220641a94b09af7f7719fa24f63fd6cdbb6bcab5a2efaf662721ed0d5f89e387c7b64736f6c63430008040033",
  "linkReferences": {},
  "deployedLinkReferences": {}
}