{
    "_format": "hh-sol-artifact-1",
    "contractName": "Zeditions",
    "sourceName": "contracts/Zeditions.sol",
    "abi": [
        {
            "inputs": [],
            "stateMutability": "nonpayable",
            "type": "constructor"
        },
        {
            "anonymous": false,
            "inputs": [
                {
                    "indexed": true,
                    "internalType": "address",
                    "name": "creator",
                    "type": "address"
                },
                {
                    "indexed": true,
                    "internalType": "uint256",
                    "name": "editionId",
                    "type": "uint256"
                },
                {
                    "indexed": true,
                    "internalType": "uint256",
                    "name": "zMediaId",
                    "type": "uint256"
                },
                {
                    "indexed": false,
                    "internalType": "uint256",
                    "name": "supply",
                    "type": "uint256"
                },
                {
                    "indexed": false,
                    "internalType": "uint256",
                    "name": "price",
                    "type": "uint256"
                }
            ],
            "name": "EditionCreated",
            "type": "event"
        },
        {
            "anonymous": false,
            "inputs": [
                {
                    "indexed": true,
                    "internalType": "address",
                    "name": "buyer",
                    "type": "address"
                },
                {
                    "indexed": true,
                    "internalType": "uint256",
                    "name": "editionId",
                    "type": "uint256"
                },
                {
                    "indexed": true,
                    "internalType": "uint256",
                    "name": "tokenId",
                    "type": "uint256"
                }
            ],
            "name": "EditionPurchased",
            "type": "event"
        },
        {
            "inputs": [
                {
                    "internalType": "uint256",
                    "name": "",
                    "type": "uint256"
                }
            ],
            "name": "amountWithdrawnToCreator",
            "outputs": [
                {
                    "internalType": "uint256",
                    "name": "",
                    "type": "uint256"
                }
            ],
            "stateMutability": "view",
            "type": "function"
        },
        {
            "inputs": [
                {
                    "internalType": "uint256",
                    "name": "editionId",
                    "type": "uint256"
                }
            ],
            "name": "buyEdition",
            "outputs": [],
            "stateMutability": "payable",
            "type": "function"
        },
        {
            "inputs": [
                {
                    "internalType": "uint256",
                    "name": "supply",
                    "type": "uint256"
                },
                {
                    "internalType": "uint256",
                    "name": "price",
                    "type": "uint256"
                },
                {
                    "internalType": "address payable",
                    "name": "depositAddress",
                    "type": "address"
                },
                {
                    "internalType": "uint256",
                    "name": "zMediaId",
                    "type": "uint256"
                }
            ],
            "name": "createEdition",
            "outputs": [],
            "stateMutability": "nonpayable",
            "type": "function"
        },
        {
            "inputs": [
                {
                    "internalType": "uint256",
                    "name": "tokenId",
                    "type": "uint256"
                }
            ],
            "name": "editionBidShares",
            "outputs": [
                {
                    "components": [
                        {
                            "components": [
                                {
                                    "internalType": "uint256",
                                    "name": "value",
                                    "type": "uint256"
                                }
                            ],
                            "internalType": "struct Decimal.D256",
                            "name": "prevOwner",
                            "type": "tuple"
                        },
                        {
                            "components": [
                                {
                                    "internalType": "uint256",
                                    "name": "value",
                                    "type": "uint256"
                                }
                            ],
                            "internalType": "struct Decimal.D256",
                            "name": "creator",
                            "type": "tuple"
                        },
                        {
                            "components": [
                                {
                                    "internalType": "uint256",
                                    "name": "value",
                                    "type": "uint256"
                                }
                            ],
                            "internalType": "struct Decimal.D256",
                            "name": "owner",
                            "type": "tuple"
                        }
                    ],
                    "internalType": "struct IMarket.BidShares",
                    "name": "",
                    "type": "tuple"
                }
            ],
            "stateMutability": "view",
            "type": "function"
        },
        {
            "inputs": [
                {
                    "internalType": "uint256",
                    "name": "tokenId",
                    "type": "uint256"
                }
            ],
            "name": "editionMediaData",
            "outputs": [
                {
                    "components": [
                        {
                            "internalType": "string",
                            "name": "tokenURI",
                            "type": "string"
                        },
                        {
                            "internalType": "string",
                            "name": "metadataURI",
                            "type": "string"
                        },
                        {
                            "internalType": "bytes32",
                            "name": "contentHash",
                            "type": "bytes32"
                        },
                        {
                            "internalType": "bytes32",
                            "name": "metadataHash",
                            "type": "bytes32"
                        }
                    ],
                    "internalType": "struct IMedia.MediaData",
                    "name": "",
                    "type": "tuple"
                }
            ],
            "stateMutability": "view",
            "type": "function"
        },
        {
            "inputs": [
                {
                    "internalType": "uint256",
                    "name": "",
                    "type": "uint256"
                }
            ],
            "name": "editions",
            "outputs": [
                {
                    "internalType": "address",
                    "name": "creator",
                    "type": "address"
                },
                {
                    "internalType": "address payable",
                    "name": "depositAddress",
                    "type": "address"
                },
                {
                    "internalType": "uint256",
                    "name": "supply",
                    "type": "uint256"
                },
                {
                    "internalType": "uint256",
                    "name": "price",
                    "type": "uint256"
                },
                {
                    "internalType": "uint256",
                    "name": "zMediaId",
                    "type": "uint256"
                },
                {
                    "internalType": "uint256",
                    "name": "sold",
                    "type": "uint256"
                }
            ],
            "stateMutability": "view",
            "type": "function"
        },
        {
            "inputs": [],
            "name": "marketContract",
            "outputs": [
                {
                    "internalType": "address",
                    "name": "",
                    "type": "address"
                }
            ],
            "stateMutability": "view",
            "type": "function"
        },
        {
            "inputs": [],
            "name": "mediaContract",
            "outputs": [
                {
                    "internalType": "address",
                    "name": "",
                    "type": "address"
                }
            ],
            "stateMutability": "view",
            "type": "function"
        },
        {
            "inputs": [
                {
                    "internalType": "address",
                    "name": "marketAddress",
                    "type": "address"
                }
            ],
            "name": "setMarketAddress",
            "outputs": [],
            "stateMutability": "nonpayable",
            "type": "function"
        },
        {
            "inputs": [
                {
                    "internalType": "address",
                    "name": "mediaAddress",
                    "type": "address"
                }
            ],
            "name": "setMediaAddress",
            "outputs": [],
            "stateMutability": "nonpayable",
            "type": "function"
        },
        {
            "inputs": [
                {
                    "internalType": "uint256",
                    "name": "",
                    "type": "uint256"
                }
            ],
            "name": "tokenToBuyer",
            "outputs": [
                {
                    "internalType": "address",
                    "name": "",
                    "type": "address"
                }
            ],
            "stateMutability": "view",
            "type": "function"
        },
        {
            "inputs": [
                {
                    "internalType": "uint256",
                    "name": "editionId",
                    "type": "uint256"
                }
            ],
            "name": "withdrawFunds",
            "outputs": [],
            "stateMutability": "nonpayable",
            "type": "function"
        }
    ],
    "bytecode": "0x60806040526001600855600160095534801561001a57600080fd5b50600080546001600160a01b031916331790556115718061003c6000396000f3fe6080604052600436106100c75760003560e01c8063ae18cb4c11610074578063f37bf3a41161004e578063f37bf3a4146102a4578063f40250d8146102e9578063fae926121461031657600080fd5b8063ae18cb4c14610220578063bd8616ec1461025b578063d466459d1461026e57600080fd5b80634e21f9c0116100a55780634e21f9c0146101a8578063a1794bcd146101e0578063adee5e991461020057600080fd5b8063155dd5ee146100cc578063279c806e146100ee5780632f514d4a14610188575b600080fd5b3480156100d857600080fd5b506100ec6100e736600461134b565b610336565b005b3480156100fa57600080fd5b5061014b61010936600461134b565b60036020819052600091825260409091208054600182015460028301549383015460048401546005909401546001600160a01b03938416959390921693909186565b604080516001600160a01b039788168152969095166020870152938501929092526060840152608083015260a082015260c0015b60405180910390f35b34801561019457600080fd5b506100ec6101a33660046111d5565b61042f565b3480156101b457600080fd5b506001546101c8906001600160a01b031681565b6040516001600160a01b03909116815260200161017f565b3480156101ec57600080fd5b506002546101c8906001600160a01b031681565b34801561020c57600080fd5b506100ec61021b366004611364565b6104de565b34801561022c57600080fd5b5061024d61023b36600461134b565b60046020526000908152604090205481565b60405190815260200161017f565b6100ec61026936600461134b565b6106d1565b34801561027a57600080fd5b506101c861028936600461134b565b6005602052600090815260409020546001600160a01b031681565b3480156102b057600080fd5b506102c46102bf36600461134b565b6108d2565b604080518251518152602080840151519082015291810151519082015260600161017f565b3480156102f557600080fd5b5061030961030436600461134b565b6109ca565b60405161017f91906113cf565b34801561032257600080fd5b506100ec6103313660046111d5565b610bae565b60008181526003602052604090205481906001600160a01b031633146103a35760405162461bcd60e51b815260206004820181905260248201527f596f7520646964206e6f742063726561746520746869732065646974696f6e2e60448201526064015b60405180910390fd5b600082815260046020908152604080832054600392839052908320600581015492015490916103d191611441565b6103db9190611460565b9050806004600085815260200190815260200160002060008282546104009190611429565b909155505060008381526003602052604090206001015461042a906001600160a01b031682610c5d565b505050565b6000546001600160a01b031633146104af5760405162461bcd60e51b815260206004820152602160248201527f596f7520646964206e6f74206465706c6f79207468697320636f6e747261637460448201527f2e00000000000000000000000000000000000000000000000000000000000000606482015260840161039a565b6001805473ffffffffffffffffffffffffffffffffffffffff19166001600160a01b0392909216919091179055565b6001546040517fe0fd045f0000000000000000000000000000000000000000000000000000000081526004810183905282916001600160a01b03169063e0fd045f9060240160206040518083038186803b15801561053b57600080fd5b505afa15801561054f573d6000803e3d6000fd5b505050506040513d601f19601f8201168201806040525081019061057391906111f9565b6001600160a01b0316336001600160a01b0316146105d35760405162461bcd60e51b815260206004820152601a60248201527f596f7520646f206e6f74206f776e207468697320746f6b656e2e000000000000604482015260640161039a565b6040805160c081018252338082526001600160a01b0386811660208085019182528486018b8152606086018b8152608087018a8152600060a089018181526008805483526003808852928c90209a518b54908a1673ffffffffffffffffffffffffffffffffffffffff19918216178c55975160018c01805491909a1698169790971790975592516002890155905191870191909155516004860155915160059094019390935591548351898152928301889052859390927fa2007b9b61743e202c0eee03cde6f78ed9639cc8432222678a11ddacda9cc538910160405180910390a4600880549060006106c5836114dc565b91905055505050505050565b60008181526003602052604090206002015481906107315760405162461bcd60e51b815260206004820152601760248201527f45646974696f6e20646f6573206e6f742065786973742e000000000000000000604482015260640161039a565b60008181526003602052604090206002810154600590910154106107975760405162461bcd60e51b815260206004820152601360248201527f45646974696f6e20736f6c64206f7574203a2800000000000000000000000000604482015260640161039a565b60008181526003602081905260409091200154341461081e5760405162461bcd60e51b815260206004820152602f60248201527f4d7573742073656e6420656e6f75676820746f2070757263686173652066726f60448201527f6d20746869732065646974696f6e2e0000000000000000000000000000000000606482015260840161039a565b61082a82600954610d76565b6108368260095461101f565b60098054600090815260056020526040808220805473ffffffffffffffffffffffffffffffffffffffff191633908117909155925490519092859290917f4b9fdb27895508bec95062758c98f0cea8ae02db989a9c5f5c032b3245b0e0ae9190a460008281526003602052604081206005018054916108b4836114dc565b9091555050600980549060006108c9836114dc565b91905055505050565b61090f6040805160808101825260006060820181815282528251602080820185528282528084019190915283519081018452908152909182015290565b60008281526005602052604090205482906001600160a01b031633146109775760405162461bcd60e51b815260206004820181905260248201527f596f7520646964206e6f74207075726368617365207468697320746f6b656e2e604482015260640161039a565b600083815260076020908152604091829020825160808101845281546060820190815281528351808401855260018301548152818401528351928301845260029091015482529182015291505b50919050565b60408051608081018252606080825260208201819052600092820183905281019190915260008281526005602052604090205482906001600160a01b03163314610a565760405162461bcd60e51b815260206004820181905260248201527f596f7520646964206e6f74207075726368617365207468697320746f6b656e2e604482015260640161039a565b60008381526006602052604090819020815160808101909252805482908290610a7e906114a7565b80601f0160208091040260200160405190810160405280929190818152602001828054610aaa906114a7565b8015610af75780601f10610acc57610100808354040283529160200191610af7565b820191906000526020600020905b815481529060010190602001808311610ada57829003601f168201915b50505050508152602001600182018054610b10906114a7565b80601f0160208091040260200160405190810160405280929190818152602001828054610b3c906114a7565b8015610b895780601f10610b5e57610100808354040283529160200191610b89565b820191906000526020600020905b815481529060010190602001808311610b6c57829003601f168201915b5050505050815260200160028201548152602001600382015481525050915050919050565b6000546001600160a01b03163314610c2e5760405162461bcd60e51b815260206004820152602160248201527f596f7520646964206e6f74206465706c6f79207468697320636f6e747261637460448201527f2e00000000000000000000000000000000000000000000000000000000000000606482015260840161039a565b6002805473ffffffffffffffffffffffffffffffffffffffff19166001600160a01b0392909216919091179055565b80471015610cad5760405162461bcd60e51b815260206004820152601c60248201527f496e73756666696369656e742062616c616e636520746f2073656e6400000000604482015260640161039a565b6000826001600160a01b03168260405160006040518083038185875af1925050503d8060008114610cfa576040519150601f19603f3d011682016040523d82523d6000602084013e610cff565b606091505b505090508061042a5760405162461bcd60e51b815260206004820152602960248201527f556e61626c6520746f2073656e643a2063726561746f72206d6179206861766560448201527f2072657665727465640000000000000000000000000000000000000000000000606482015260840161039a565b60008281526003602052604080822060049081015460015492517fc87b56dd00000000000000000000000000000000000000000000000000000000815291820181905292916001600160a01b03169063c87b56dd9060240160006040518083038186803b158015610de657600080fd5b505afa158015610dfa573d6000803e3d6000fd5b505050506040513d6000823e601f3d908101601f19168201604052610e22919081019061122f565b6001546040517f157c3df9000000000000000000000000000000000000000000000000000000008152600481018590529192506000916001600160a01b039091169063157c3df99060240160006040518083038186803b158015610e8557600080fd5b505afa158015610e99573d6000803e3d6000fd5b505050506040513d6000823e601f3d908101601f19168201604052610ec1919081019061122f565b6001546040517f01ddc3b5000000000000000000000000000000000000000000000000000000008152600481018690529192506000916001600160a01b03909116906301ddc3b59060240160206040518083038186803b158015610f2457600080fd5b505afa158015610f38573d6000803e3d6000fd5b505050506040513d601f19601f82011682018060405250810190610f5c9190611216565b6000878152600360209081526040808320600501548151928301899052908201524260608201529192509060800160408051601f1981840301815282825280516020918201206080840183528784528382018790528383018190526060840186905260008a815260068352929092208351805193955084939192610fe5928492909101906110fa565b506020828101518051610ffe92600185019201906110fa565b50604082015160028201556060909101516003909101555050505050505050565b60025460008381526003602052604080822060049081015491517ff9ce05820000000000000000000000000000000000000000000000000000000081529081019190915290916001600160a01b03169063f9ce05829060240160606040518083038186803b15801561109057600080fd5b505afa1580156110a4573d6000803e3d6000fd5b505050506040513d601f19601f820116820180604052508101906110c891906112dc565b600092835260076020908152604093849020825151815590820151516001820155920151516002909201919091555050565b828054611106906114a7565b90600052602060002090601f016020900481019282611128576000855561116e565b82601f1061114157805160ff191683800117855561116e565b8280016001018555821561116e579182015b8281111561116e578251825591602001919060010190611153565b5061117a92915061117e565b5090565b5b8082111561117a576000815560010161117f565b6000602082840312156111a557600080fd5b6040516020810181811067ffffffffffffffff821117156111c8576111c861150d565b6040529151825250919050565b6000602082840312156111e757600080fd5b81356111f281611523565b9392505050565b60006020828403121561120b57600080fd5b81516111f281611523565b60006020828403121561122857600080fd5b5051919050565b60006020828403121561124157600080fd5b815167ffffffffffffffff8082111561125957600080fd5b818401915084601f83011261126d57600080fd5b81518181111561127f5761127f61150d565b604051601f8201601f19908116603f011681019083821181831017156112a7576112a761150d565b816040528281528760208487010111156112c057600080fd5b6112d1836020830160208801611477565b979650505050505050565b6000606082840312156112ee57600080fd5b6040516060810181811067ffffffffffffffff821117156113115761131161150d565b60405261131e8484611193565b815261132d8460208501611193565b602082015261133f8460408501611193565b60408201529392505050565b60006020828403121561135d57600080fd5b5035919050565b6000806000806080858703121561137a57600080fd5b8435935060208501359250604085013561139381611523565b9396929550929360600135925050565b600081518084526113bb816020860160208601611477565b601f01601f19169290920160200192915050565b6020815260008251608060208401526113eb60a08401826113a3565b90506020840151601f1984830301604085015261140882826113a3565b91505060408401516060840152606084015160808401528091505092915050565b6000821982111561143c5761143c6114f7565b500190565b600081600019048311821515161561145b5761145b6114f7565b500290565b600082821015611472576114726114f7565b500390565b60005b8381101561149257818101518382015260200161147a565b838111156114a1576000848401525b50505050565b600181811c908216806114bb57607f821691505b602082108114156109c457634e487b7160e01b600052602260045260246000fd5b60006000198214156114f0576114f06114f7565b5060010190565b634e487b7160e01b600052601160045260246000fd5b634e487b7160e01b600052604160045260246000fd5b6001600160a01b038116811461153857600080fd5b5056fea2646970667358221220590afd3c72e6bba4f49b50fa5e796273e5b619aa5972f6cecbaf4fa9ff821daa64736f6c63430008070033",
    "linkReferences": {},
    "deployedLinkReferences": {}
}